{
  "contractName": "TodoList",
  "abi": [
    {
      "inputs": [],
      "stateMutability": "nonpayable",
      "type": "constructor"
    },
    {
      "inputs": [
        {
          "internalType": "uint256",
          "name": "",
          "type": "uint256"
        }
      ],
      "name": "tasks",
      "outputs": [
        {
          "internalType": "uint256",
          "name": "id",
          "type": "uint256"
        },
        {
          "internalType": "string",
          "name": "content",
          "type": "string"
        },
        {
          "internalType": "bool",
          "name": "completed",
          "type": "bool"
        }
      ],
      "stateMutability": "view",
      "type": "function",
      "constant": true
    },
    {
      "inputs": [
        {
          "internalType": "string",
          "name": "_content",
          "type": "string"
        }
      ],
      "name": "createTask",
      "outputs": [],
      "stateMutability": "nonpayable",
      "type": "function"
    }
  ],
  "bytecode": "0x60806040525f8055348015610012575f80fd5b5060408051808201909152600981526854657374205461736b60b81b602082015261003c90610041565b610231565b5f8054908061004f836100b6565b9091555050604080516060810182525f805480835260208084018681528486018490529183526001908190529390912082518155905191929091908201906100979082610172565b50604091909101516002909101805460ff191691151591909117905550565b5f600182016100d357634e487b7160e01b5f52601160045260245ffd5b5060010190565b634e487b7160e01b5f52604160045260245ffd5b600181811c9082168061010257607f821691505b60208210810361012057634e487b7160e01b5f52602260045260245ffd5b50919050565b601f82111561016d57805f5260205f20601f840160051c8101602085101561014b5750805b601f840160051c820191505b8181101561016a575f8155600101610157565b50505b505050565b81516001600160401b0381111561018b5761018b6100da565b61019f8161019984546100ee565b84610126565b602080601f8311600181146101d2575f84156101bb5750858301515b5f19600386901b1c1916600185901b178555610229565b5f85815260208120601f198616915b82811015610200578886015182559484019460019091019084016101e1565b508582101561021d57878501515f19600388901b60f8161c191681555b505060018460011b0185555b505050505050565b6104688061023e5f395ff3fe608060405234801561000f575f80fd5b5060043610610034575f3560e01c8063111002aa146100385780638d9776721461004d575b5f80fd5b61004b6100463660046101ab565b610078565b005b61006061005b366004610256565b6100ed565b60405161006f9392919061026d565b60405180910390f35b5f80549080610086836102ca565b9091555050604080516060810182525f805480835260208084018681528486018490529183526001908190529390912082518155905191929091908201906100ce9082610372565b50604091909101516002909101805460ff191691151591909117905550565b600160208190525f91825260409091208054918101805461010d906102ee565b80601f0160208091040260200160405190810160405280929190818152602001828054610139906102ee565b80156101845780601f1061015b57610100808354040283529160200191610184565b820191905f5260205f20905b81548152906001019060200180831161016757829003601f168201915b5050506002909301549192505060ff1683565b634e487b7160e01b5f52604160045260245ffd5b5f602082840312156101bb575f80fd5b813567ffffffffffffffff808211156101d2575f80fd5b818401915084601f8301126101e5575f80fd5b8135818111156101f7576101f7610197565b604051601f8201601f19908116603f0116810190838211818310171561021f5761021f610197565b81604052828152876020848701011115610237575f80fd5b826020860160208301375f928101602001929092525095945050505050565b5f60208284031215610266575f80fd5b5035919050565b8381525f60206060602084015284518060608501525f5b818110156102a057868101830151858201608001528201610284565b505f608082860101526080601f19601f830116850101925050508215156040830152949350505050565b5f600182016102e757634e487b7160e01b5f52601160045260245ffd5b5060010190565b600181811c9082168061030257607f821691505b60208210810361032057634e487b7160e01b5f52602260045260245ffd5b50919050565b601f82111561036d57805f5260205f20601f840160051c8101602085101561034b5750805b601f840160051c820191505b8181101561036a575f8155600101610357565b50505b505050565b815167ffffffffffffffff81111561038c5761038c610197565b6103a08161039a84546102ee565b84610326565b602080601f8311600181146103d3575f84156103bc5750858301515b5f19600386901b1c1916600185901b17855561042a565b5f85815260208120601f198616915b82811015610401578886015182559484019460019091019084016103e2565b508582101561041e57878501515f19600388901b60f8161c191681555b505060018460011b0185555b50505050505056fea2646970667358221220e4e3d93f8f7d188517d8f03ee413bd2b06a857ecabb1fd1f7408161c4176490564736f6c63430008170033",
  "immutableReferences": {},
  "source": "// SPDX-License-Identifier: UNLICENSED\npragma solidity ^0.8.0;\n\ncontract TodoList {\n    uint taskCount = 0;\n\n    struct Task {\n        uint id;\n        string content;\n        bool completed;\n    }\n\n    constructor() {\n        createTask(\"Test Task\");\n    }\n\n    mapping(uint => Task) public tasks;\n\n    function createTask(string memory _content) public {\n        taskCount++;\n        tasks[taskCount] = Task(taskCount, _content, false);\n    }\n}\n",
  "sourcePath": "/home/quysterben/Workspace/block-chain-learning/eth-todo-list/contracts/TodoList.sol",
  "compiler": {
    "name": "solc",
    "version": "0.8.23+commit.f704f362.Emscripten.clang"
  },
  "schemaVersion": "3.4.16",
  "updatedAt": "2023-12-25T07:57:28.317Z",
  "networkType": "ethereum",
  "devdoc": {
    "kind": "dev",
    "methods": {},
    "version": 1
  },
  "userdoc": {
    "kind": "user",
    "methods": {},
    "version": 1
  }
}